{
  "_format": "hh-sol-artifact-1",
  "contractName": "SimpleConfidentialVote",
  "sourceName": "contracts/SimpleConfidentialVote.sol",
  "abi": [
    {
      "inputs": [],
      "stateMutability": "nonpayable",
      "type": "constructor"
    },
    {
      "anonymous": false,
      "inputs": [
        {
          "indexed": true,
          "internalType": "uint256",
          "name": "pollId",
          "type": "uint256"
        },
        {
          "indexed": false,
          "internalType": "string",
          "name": "title",
          "type": "string"
        },
        {
          "indexed": true,
          "internalType": "address",
          "name": "creator",
          "type": "address"
        },
        {
          "indexed": false,
          "internalType": "uint256",
          "name": "endTime",
          "type": "uint256"
        }
      ],
      "name": "PollCreated",
      "type": "event"
    },
    {
      "anonymous": false,
      "inputs": [
        {
          "indexed": true,
          "internalType": "uint256",
          "name": "pollId",
          "type": "uint256"
        }
      ],
      "name": "PollDeleted",
      "type": "event"
    },
    {
      "anonymous": false,
      "inputs": [
        {
          "indexed": true,
          "internalType": "uint256",
          "name": "pollId",
          "type": "uint256"
        }
      ],
      "name": "PollEnded",
      "type": "event"
    },
    {
      "anonymous": false,
      "inputs": [
        {
          "indexed": true,
          "internalType": "uint256",
          "name": "pollId",
          "type": "uint256"
        },
        {
          "indexed": true,
          "internalType": "address",
          "name": "voter",
          "type": "address"
        }
      ],
      "name": "VoteCast",
      "type": "event"
    },
    {
      "inputs": [],
      "name": "clearAllPolls",
      "outputs": [],
      "stateMutability": "nonpayable",
      "type": "function"
    },
    {
      "inputs": [
        {
          "internalType": "string",
          "name": "title",
          "type": "string"
        },
        {
          "internalType": "string[]",
          "name": "options",
          "type": "string[]"
        },
        {
          "internalType": "uint256",
          "name": "durationInHours",
          "type": "uint256"
        }
      ],
      "name": "createPoll",
      "outputs": [
        {
          "internalType": "uint256",
          "name": "",
          "type": "uint256"
        }
      ],
      "stateMutability": "nonpayable",
      "type": "function"
    },
    {
      "inputs": [
        {
          "internalType": "uint256",
          "name": "pollId",
          "type": "uint256"
        }
      ],
      "name": "deletePoll",
      "outputs": [],
      "stateMutability": "nonpayable",
      "type": "function"
    },
    {
      "inputs": [
        {
          "internalType": "uint256",
          "name": "pollId",
          "type": "uint256"
        }
      ],
      "name": "endPoll",
      "outputs": [],
      "stateMutability": "nonpayable",
      "type": "function"
    },
    {
      "inputs": [
        {
          "internalType": "uint256",
          "name": "pollId",
          "type": "uint256"
        }
      ],
      "name": "getPollInfo",
      "outputs": [
        {
          "internalType": "string",
          "name": "title",
          "type": "string"
        },
        {
          "internalType": "string[]",
          "name": "options",
          "type": "string[]"
        },
        {
          "internalType": "uint256",
          "name": "endTime",
          "type": "uint256"
        },
        {
          "internalType": "address",
          "name": "creator",
          "type": "address"
        },
        {
          "internalType": "bool",
          "name": "isActive",
          "type": "bool"
        },
        {
          "internalType": "uint256",
          "name": "totalVoters",
          "type": "uint256"
        }
      ],
      "stateMutability": "view",
      "type": "function"
    },
    {
      "inputs": [],
      "name": "getTotalPolls",
      "outputs": [
        {
          "internalType": "uint256",
          "name": "",
          "type": "uint256"
        }
      ],
      "stateMutability": "view",
      "type": "function"
    },
    {
      "inputs": [
        {
          "internalType": "uint256",
          "name": "pollId",
          "type": "uint256"
        },
        {
          "internalType": "uint256",
          "name": "optionIndex",
          "type": "uint256"
        }
      ],
      "name": "getVoteCount",
      "outputs": [
        {
          "internalType": "uint32",
          "name": "",
          "type": "uint32"
        }
      ],
      "stateMutability": "view",
      "type": "function"
    },
    {
      "inputs": [
        {
          "internalType": "uint256",
          "name": "pollId",
          "type": "uint256"
        }
      ],
      "name": "getWinner",
      "outputs": [
        {
          "internalType": "uint256[]",
          "name": "winningOptions",
          "type": "uint256[]"
        },
        {
          "internalType": "uint32",
          "name": "maxVotes",
          "type": "uint32"
        },
        {
          "internalType": "bool",
          "name": "hasTie",
          "type": "bool"
        }
      ],
      "stateMutability": "view",
      "type": "function"
    },
    {
      "inputs": [
        {
          "internalType": "uint256",
          "name": "pollId",
          "type": "uint256"
        },
        {
          "internalType": "address",
          "name": "voter",
          "type": "address"
        }
      ],
      "name": "hasVotedInPoll",
      "outputs": [
        {
          "internalType": "bool",
          "name": "",
          "type": "bool"
        }
      ],
      "stateMutability": "view",
      "type": "function"
    },
    {
      "inputs": [
        {
          "internalType": "uint256",
          "name": "pollId",
          "type": "uint256"
        }
      ],
      "name": "isPollActive",
      "outputs": [
        {
          "internalType": "bool",
          "name": "",
          "type": "bool"
        }
      ],
      "stateMutability": "view",
      "type": "function"
    },
    {
      "inputs": [],
      "name": "owner",
      "outputs": [
        {
          "internalType": "address",
          "name": "",
          "type": "address"
        }
      ],
      "stateMutability": "view",
      "type": "function"
    },
    {
      "inputs": [],
      "name": "pollCount",
      "outputs": [
        {
          "internalType": "uint256",
          "name": "",
          "type": "uint256"
        }
      ],
      "stateMutability": "view",
      "type": "function"
    },
    {
      "inputs": [
        {
          "internalType": "uint256",
          "name": "",
          "type": "uint256"
        }
      ],
      "name": "polls",
      "outputs": [
        {
          "internalType": "string",
          "name": "title",
          "type": "string"
        },
        {
          "internalType": "uint256",
          "name": "endTime",
          "type": "uint256"
        },
        {
          "internalType": "address",
          "name": "creator",
          "type": "address"
        },
        {
          "internalType": "bool",
          "name": "isActive",
          "type": "bool"
        },
        {
          "internalType": "uint256",
          "name": "totalVoters",
          "type": "uint256"
        }
      ],
      "stateMutability": "view",
      "type": "function"
    },
    {
      "inputs": [
        {
          "internalType": "uint256",
          "name": "pollId",
          "type": "uint256"
        },
        {
          "internalType": "uint256",
          "name": "optionIndex",
          "type": "uint256"
        },
        {
          "internalType": "bytes32",
          "name": "encryptedVote",
          "type": "bytes32"
        },
        {
          "internalType": "bytes",
          "name": "inputProof",
          "type": "bytes"
        }
      ],
      "name": "vote",
      "outputs": [],
      "stateMutability": "nonpayable",
      "type": "function"
    }
  ],
  "bytecode": "0x6080604052348015600e575f5ffd5b50600280546001600160a01b03191673ac7539f65d98313ea4babef870f6ae29107ad4ce179055611a21806100425f395ff3fe608060405234801561000f575f5ffd5b50600436106100e5575f3560e01c80638da5cb5b11610088578063c7df6e3e11610063578063c7df6e3e146101f6578063de2e19a014610209578063f43b877814610231578063f8c860f414610244575f5ffd5b80638da5cb5b1461019e5780639207891d146101c9578063ac2f0074146101d2575f5ffd5b80632ec15480116100c35780632ec15480146101345780633ef87d54146101575780634129b2c914610169578063752fe5c11461018b575f5ffd5b806317e499b5146100e95780631f35b51d146100f357806329b8f44a14610106575b5f5ffd5b6100f1610257565b005b6100f1610101366004611422565b6103a8565b610119610114366004611422565b610546565b60405161012b96959493929190611467565b60405180910390f35b610147610142366004611422565b610741565b604051901515815260200161012b565b6001545b60405190815260200161012b565b61017c610177366004611422565b6107bf565b60405161012b93929190611505565b6100f161019936600461155e565b610a4a565b6002546101b1906001600160a01b031681565b6040516001600160a01b03909116815260200161012b565b61015b60015481565b6101e56101e0366004611422565b610cf5565b60405161012b9594939291906115e5565b610147610204366004611624565b610db9565b61021c61021736600461165d565b610e30565b60405163ffffffff909116815260200161012b565b6100f161023f366004611422565b610f27565b61015b61025236600461172e565b6110bb565b6002546001600160a01b031633146102c05760405162461bcd60e51b815260206004820152602160248201527f4f6e6c792061646d696e2063616e2063616c6c20746869732066756e6374696f6044820152603760f91b60648201526084015b60405180910390fd5b5f5b6001548110156103a1575f81815260208190526040902060040154600160a01b900460ff1615610399575f8181526020818152604080832060048101805460ff60a01b1916905581518084019092528382528484529290915261032590826118ac565b505f81815260208190526040812061034291600190910190611327565b5f81815260208190526040812061035e91600290910190611345565b5f818152602081905260408082206006018290555182917fe66ba7d1f84b318686d5d7e1d0a39a60d5faec16733d8c4ae85a0f5b6522eaa191a25b6001016102c2565b505f600155565b5f8181526020819052604090206004015481906001600160a01b03163314806103db57506002546001600160a01b031633145b61044d5760405162461bcd60e51b815260206004820152603160248201527f4f6e6c7920706f6c6c2063726561746f72206f722061646d696e2063616e206360448201527f616c6c20746869732066756e6374696f6e00000000000000000000000000000060648201526084016102b7565b8160015481106104955760405162461bcd60e51b8152602060048201526013602482015272141bdb1b08191bd95cc81b9bdd08195e1a5cdd606a1b60448201526064016102b7565b5f8381526020818152604080832060048101805460ff60a01b191690558151808401909252838252868452929091526104ce90826118ac565b505f8381526020819052604081206104eb91600190910190611327565b5f83815260208190526040812061050791600290910190611345565b5f838152602081905260408082206006018290555184917fe66ba7d1f84b318686d5d7e1d0a39a60d5faec16733d8c4ae85a0f5b6522eaa191a2505050565b6060805f5f5f5f8660015481106105955760405162461bcd60e51b8152602060048201526013602482015272141bdb1b08191bd95cc81b9bdd08195e1a5cdd606a1b60448201526064016102b7565b5f88815260208190526040902060038101546004820154600683015483548493600185019390926001600160a01b03821692600160a01b90920460ff169186906105de9061182e565b80601f016020809104026020016040519081016040528092919081815260200182805461060a9061182e565b80156106555780601f1061062c57610100808354040283529160200191610655565b820191905f5260205f20905b81548152906001019060200180831161063857829003601f168201915b5050505050955084805480602002602001604051908101604052809291908181526020015f905b82821015610724578382905f5260205f200180546106999061182e565b80601f01602080910402602001604051908101604052809291908181526020018280546106c59061182e565b80156107105780601f106106e757610100808354040283529160200191610710565b820191905f5260205f20905b8154815290600101906020018083116106f357829003601f168201915b50505050508152602001906001019061067c565b505050509450975097509750975097509750505091939550919395565b5f81600154811061078a5760405162461bcd60e51b8152602060048201526013602482015272141bdb1b08191bd95cc81b9bdd08195e1a5cdd606a1b60448201526064016102b7565b5f8381526020819052604090206004810154600160a01b900460ff1680156107b55750806003015442105b9250505b50919050565b60605f5f83600154811061080b5760405162461bcd60e51b8152602060048201526013602482015272141bdb1b08191bd95cc81b9bdd08195e1a5cdd606a1b60448201526064016102b7565b5f85815260208190526040902060068101546108695760405162461bcd60e51b815260206004820152600d60248201527f4e6f20766f74657320636173740000000000000000000000000000000000000060448201526064016102b7565b5f9350835b6002820154811015610903578463ffffffff1682600201828154811061089657610896611967565b5f918252602090912060088204015460079091166004026101000a900463ffffffff1611156108fb578160020181815481106108d4576108d4611967565b905f5260205f2090600891828204019190066004029054906101000a900463ffffffff1694505b60010161086e565b505f805b600283015481101561096d578563ffffffff1683600201828154811061092f5761092f611967565b5f918252602090912060088204015460079091166004026101000a900463ffffffff160361096557816109618161198f565b9250505b600101610907565b508067ffffffffffffffff8111156109875761098761167d565b6040519080825280602002602001820160405280156109b0578160200160208202803683370190505b5095505f805b6002840154811015610a3a578663ffffffff168460020182815481106109de576109de611967565b5f918252602090912060088204015460079091166004026101000a900463ffffffff1603610a325780888381518110610a1957610a19611967565b602090810291909101015281610a2e8161198f565b9250505b6001016109b6565b5095979496506001109450505050565b846001548110610a925760405162461bcd60e51b8152602060048201526013602482015272141bdb1b08191bd95cc81b9bdd08195e1a5cdd606a1b60448201526064016102b7565b5f868152602081905260409020600401548690600160a01b900460ff16610afb5760405162461bcd60e51b815260206004820152601260248201527f506f6c6c206973206e6f7420616374697665000000000000000000000000000060448201526064016102b7565b5f818152602081905260409020600301544210610b5a5760405162461bcd60e51b815260206004820152600e60248201527f506f6c6c2068617320656e64656400000000000000000000000000000000000060448201526064016102b7565b5f87815260208181526040808320338452600501909152902054879060ff1615610bc65760405162461bcd60e51b815260206004820152600d60248201527f416c726561647920766f7465640000000000000000000000000000000000000060448201526064016102b7565b5f88815260208190526040902060018101548810610c265760405162461bcd60e51b815260206004820152601460248201527f496e76616c6964206f7074696f6e20696e64657800000000000000000000000060448201526064016102b7565b6001816002018981548110610c3d57610c3d611967565b905f5260205f2090600891828204019190066004028282829054906101000a900463ffffffff16610c6e91906119a7565b825463ffffffff9182166101009390930a928302919092021990911617905550335f9081526005820160205260408120805460ff1916600117905560068201805491610cb98361198f565b909155505060405133908a907ff1003b73c437642c0460aee9cd9628b0b8c447b66e6c7c905531b9c644214a11905f90a3505050505050505050565b5f60208190529081526040902080548190610d0f9061182e565b80601f0160208091040260200160405190810160405280929190818152602001828054610d3b9061182e565b8015610d865780601f10610d5d57610100808354040283529160200191610d86565b820191905f5260205f20905b815481529060010190602001808311610d6957829003601f168201915b5050505060038301546004840154600690940154929390926001600160a01b0382169250600160a01b90910460ff169085565b5f826001548110610e025760405162461bcd60e51b8152602060048201526013602482015272141bdb1b08191bd95cc81b9bdd08195e1a5cdd606a1b60448201526064016102b7565b50505f918252602082815260408084206001600160a01b039390931684526005909201905290205460ff1690565b5f826001548110610e795760405162461bcd60e51b8152602060048201526013602482015272141bdb1b08191bd95cc81b9bdd08195e1a5cdd606a1b60448201526064016102b7565b5f848152602081905260409020600101548310610ed85760405162461bcd60e51b815260206004820152601460248201527f496e76616c6964206f7074696f6e20696e64657800000000000000000000000060448201526064016102b7565b5f848152602081905260409020600201805484908110610efa57610efa611967565b905f5260205f2090600891828204019190066004029054906101000a900463ffffffff1691505092915050565b806001548110610f6f5760405162461bcd60e51b8152602060048201526013602482015272141bdb1b08191bd95cc81b9bdd08195e1a5cdd606a1b60448201526064016102b7565b5f8281526020819052604090206004015482906001600160a01b0316331480610fa257506002546001600160a01b031633145b6110145760405162461bcd60e51b815260206004820152603160248201527f4f6e6c7920706f6c6c2063726561746f72206f722061646d696e2063616e206360448201527f616c6c20746869732066756e6374696f6e00000000000000000000000000000060648201526084016102b7565b5f8381526020819052604090206004810154600160a01b900460ff1661107c5760405162461bcd60e51b815260206004820152601260248201527f506f6c6c20616c726561647920656e646564000000000000000000000000000060448201526064016102b7565b60048101805460ff60a01b1916905560405184907f14d4cfc1c2a6f37c8f97ad80fc12bd9d943ea6d4dd7684137850125597ce9bf7905f90a250505050565b5f6002835110156111185760405162461bcd60e51b815260206004820152602160248201527f506f6c6c206d7573742068617665206174206c656173742032206f7074696f6e6044820152607360f81b60648201526084016102b7565b600a835111156111905760405162461bcd60e51b815260206004820152602560248201527f506f6c6c2063616e6e6f742068617665206d6f7265207468616e203130206f7060448201527f74696f6e7300000000000000000000000000000000000000000000000000000060648201526084016102b7565b5f821180156111a0575060a88211155b6111ec5760405162461bcd60e51b815260206004820152601c60248201527f4475726174696f6e206d75737420626520312d31363820686f7572730000000060448201526064016102b7565b600180545f91826111fc8361198f565b909155505f8181526020819052604090209091508061121b87826118ac565b5084516112319060018301906020880190611367565b5061123e84610e106119c9565b61124890426119e0565b600382015560048101805460ff60a01b1933167fffffffffffffffffffffff00000000000000000000000000000000000000000090911617600160a01b1790555f600682018190555b85518110156112d557600282018054600180820183555f92835260209092206008820401805460079092166004026101000a63ffffffff0219909116905501611291565b50336001600160a01b0316827f29f758df3e81eeecf732e452ff26f333ec14ae9aa2d08ae1ce7b5af71808026b8884600301546040516113169291906119f3565b60405180910390a350949350505050565b5080545f8255905f5260205f209081019061134291906113bb565b50565b5080545f825560070160089004905f5260205f209081019061134291906113d7565b828054828255905f5260205f209081019282156113ab579160200282015b828111156113ab578251829061139b90826118ac565b5091602001919060010190611385565b506113b79291506113bb565b5090565b808211156113b7575f6113ce82826113eb565b506001016113bb565b5b808211156113b7575f81556001016113d8565b5080546113f79061182e565b5f825580601f10611406575050565b601f0160209004905f5260205f209081019061134291906113d7565b5f60208284031215611432575f5ffd5b5035919050565b5f81518084528060208401602086015e5f602082860101526020601f19601f83011685010191505092915050565b60c081525f61147960c0830189611439565b828103602084015280885180835260208301915060208160051b84010160208b015f5b838110156114ce57601f198684030185526114b8838351611439565b602095860195909350919091019060010161149c565b5050604086018a90526001600160a01b038916606087015293506114f192505050565b921515608082015260a00152949350505050565b606080825284519082018190525f9060208601906080840190835b8181101561153e578351835260209384019390920191600101611520565b505063ffffffff9590951660208401525050901515604090910152919050565b5f5f5f5f5f60808688031215611572575f5ffd5b853594506020860135935060408601359250606086013567ffffffffffffffff81111561159d575f5ffd5b8601601f810188136115ad575f5ffd5b803567ffffffffffffffff8111156115c3575f5ffd5b8860208284010111156115d4575f5ffd5b959894975092955050506020019190565b60a081525f6115f760a0830188611439565b6020830196909652506001600160a01b039390931660408401529015156060830152608090910152919050565b5f5f60408385031215611635575f5ffd5b8235915060208301356001600160a01b0381168114611652575f5ffd5b809150509250929050565b5f5f6040838503121561166e575f5ffd5b50508035926020909101359150565b634e487b7160e01b5f52604160045260245ffd5b604051601f8201601f1916810167ffffffffffffffff811182821017156116ba576116ba61167d565b604052919050565b5f82601f8301126116d1575f5ffd5b813567ffffffffffffffff8111156116eb576116eb61167d565b6116fe601f8201601f1916602001611691565b818152846020838601011115611712575f5ffd5b816020850160208301375f918101602001919091529392505050565b5f5f5f60608486031215611740575f5ffd5b833567ffffffffffffffff811115611756575f5ffd5b611762868287016116c2565b935050602084013567ffffffffffffffff81111561177e575f5ffd5b8401601f8101861361178e575f5ffd5b803567ffffffffffffffff8111156117a8576117a861167d565b8060051b6117b860208201611691565b918252602081840181019290810190898411156117d3575f5ffd5b6020850192505b8383101561181957823567ffffffffffffffff8111156117f8575f5ffd5b6118078b6020838901016116c2565b835250602092830192909101906117da565b96999698505050506040949094013593505050565b600181811c9082168061184257607f821691505b6020821081036107b957634e487b7160e01b5f52602260045260245ffd5b601f8211156118a757805f5260205f20601f840160051c810160208510156118855750805b601f840160051c820191505b818110156118a4575f8155600101611891565b50505b505050565b815167ffffffffffffffff8111156118c6576118c661167d565b6118da816118d4845461182e565b84611860565b6020601f82116001811461190c575f83156118f55750848201515b5f19600385901b1c1916600184901b1784556118a4565b5f84815260208120601f198516915b8281101561193b578785015182556020948501946001909201910161191b565b508482101561195857868401515f19600387901b60f8161c191681555b50505050600190811b01905550565b634e487b7160e01b5f52603260045260245ffd5b634e487b7160e01b5f52601160045260245ffd5b5f600182016119a0576119a061197b565b5060010190565b63ffffffff81811683821601908111156119c3576119c361197b565b92915050565b80820281158282048414176119c3576119c361197b565b808201808211156119c3576119c361197b565b604081525f611a056040830185611439565b9050826020830152939250505056fea164736f6c634300081b000a",
  "linkReferences": {},
  "deployedLinkReferences": {}
}